:100000000C9434000C9451000C9451000C94510049
:100010000C9451000C9451000C9451000C9451001C
:100020000C9451000C9451000C9451000C9451000C
:100030000C9451000C9451000C9451000C945100FC
:100040000C9451000C9451000C9451000C945100EC
:100050000C9451000C9451000C9451000C945100DC
:100060000C9451000C94510011241FBECFEFD8E026
:10007000DEBFCDBF11E0A0E0B1E0E4ECF1E002C0F2
:1000800005900D92AE32B107D9F721E0AEE2B1E0B2
:1000900001C01D92A433B207E1F70E9453000C94F3
:1000A000E0000C9400000E9475008EE091E09093B7
:1000B00031018093300180E091E090932F01809393
:1000C0002E0114B815B860913001709131018CE1A6
:1000D00091E00E949C002FEF89E698E1215080403A
:1000E0009040E1F700C00000EECF1092C50089E11A
:1000F0008093C400E0ECF0E080818D7F808386E017
:100100008093C20088E18093C1000895CF93C82FE7
:100110008A3019F48DE00E9486008091C00085FF2E
:10012000FCCFC093C600CF9108958091C00087FF97
:10013000FCCF8091C6000895EF92FF920F931F931A
:10014000CF93DF938B01DB0113962C9121FF16C017
:10015000EC01E12CF12C8991882371F0D8011896DB
:10016000ED91FC911997B8010995892BA1F3EE2423
:10017000EA94FF24FA94EFCFC70102C08FEF9FEFFC
:10018000CDB7DEB7E6E00C94D1002A8839884888DC
:100190005F846E847D848C849B84AA84B984C884A3
:1001A000DF80EE80FD800C811B81AA81B981CE0F9A
:1001B000D11D0FB6F894DEBF0FBECDBFED0108957F
:0401C000F894FFCFE1
:1001C4000000000100000000000095000000000095
:1001D40000020000000086000000000053656E73FA
:0E01E4006F722072656164696E673A2F6E005B
:00000001FF
